{
  "contractName": "Fundraiser",
  "abi": [
    {
      "inputs": [
        {
          "internalType": "uint256",
          "name": "_goalAmount",
          "type": "uint256"
        },
        {
          "internalType": "uint256",
          "name": "_minDonation",
          "type": "uint256"
        },
        {
          "internalType": "uint256",
          "name": "_expiryDate",
          "type": "uint256"
        },
        {
          "internalType": "string",
          "name": "_hostName",
          "type": "string"
        },
        {
          "internalType": "string",
          "name": "_title",
          "type": "string"
        },
        {
          "internalType": "string",
          "name": "_description",
          "type": "string"
        },
        {
          "internalType": "address",
          "name": "_recipientAddress",
          "type": "address"
        },
        {
          "internalType": "address",
          "name": "_hostAddress",
          "type": "address"
        }
      ],
      "stateMutability": "nonpayable",
      "type": "constructor"
    },
    {
      "inputs": [],
      "name": "stage",
      "outputs": [
        {
          "internalType": "enum Fundraiser.Stage",
          "name": "",
          "type": "uint8"
        }
      ],
      "stateMutability": "view",
      "type": "function"
    },
    {
      "inputs": [],
      "name": "isFundraiserExpired",
      "outputs": [
        {
          "internalType": "bool",
          "name": "",
          "type": "bool"
        }
      ],
      "stateMutability": "view",
      "type": "function"
    },
    {
      "inputs": [],
      "name": "getDetails",
      "outputs": [
        {
          "internalType": "uint256",
          "name": "_goalAmount",
          "type": "uint256"
        },
        {
          "internalType": "string",
          "name": "_hostName",
          "type": "string"
        },
        {
          "internalType": "string",
          "name": "_title",
          "type": "string"
        },
        {
          "internalType": "string",
          "name": "_description",
          "type": "string"
        },
        {
          "internalType": "address",
          "name": "_fundraiserAddress",
          "type": "address"
        },
        {
          "internalType": "bool",
          "name": "_isExpired",
          "type": "bool"
        },
        {
          "internalType": "uint256",
          "name": "_fundraiserBalance",
          "type": "uint256"
        }
      ],
      "stateMutability": "payable",
      "type": "function"
    },
    {
      "inputs": [],
      "name": "getAllDetails",
      "outputs": [
        {
          "internalType": "uint256",
          "name": "_goalAmount",
          "type": "uint256"
        },
        {
          "internalType": "uint256",
          "name": "_minDonation",
          "type": "uint256"
        },
        {
          "internalType": "uint256",
          "name": "_donatorCount",
          "type": "uint256"
        },
        {
          "internalType": "uint256",
          "name": "_expiryDate",
          "type": "uint256"
        },
        {
          "internalType": "bool",
          "name": "_isCompleted",
          "type": "bool"
        },
        {
          "internalType": "string",
          "name": "_hostName",
          "type": "string"
        },
        {
          "internalType": "string",
          "name": "_title",
          "type": "string"
        },
        {
          "internalType": "string",
          "name": "_description",
          "type": "string"
        },
        {
          "internalType": "address",
          "name": "_hostAddress",
          "type": "address"
        },
        {
          "internalType": "address",
          "name": "_recipientAddress",
          "type": "address"
        },
        {
          "internalType": "address",
          "name": "_fundraiserAddress",
          "type": "address"
        },
        {
          "internalType": "uint256",
          "name": "_fundraiserBalance",
          "type": "uint256"
        }
      ],
      "stateMutability": "view",
      "type": "function"
    },
    {
      "inputs": [],
      "name": "getGoal",
      "outputs": [
        {
          "internalType": "uint256",
          "name": "",
          "type": "uint256"
        }
      ],
      "stateMutability": "view",
      "type": "function"
    },
    {
      "inputs": [],
      "name": "getBalance",
      "outputs": [
        {
          "internalType": "uint256",
          "name": "",
          "type": "uint256"
        }
      ],
      "stateMutability": "view",
      "type": "function"
    },
    {
      "inputs": [],
      "name": "getStatus",
      "outputs": [
        {
          "internalType": "enum Fundraiser.Stage",
          "name": "",
          "type": "uint8"
        }
      ],
      "stateMutability": "view",
      "type": "function"
    },
    {
      "inputs": [],
      "name": "addDonation",
      "outputs": [],
      "stateMutability": "payable",
      "type": "function"
    },
    {
      "inputs": [],
      "name": "refundAll",
      "outputs": [],
      "stateMutability": "payable",
      "type": "function"
    },
    {
      "inputs": [],
      "name": "releaseFunds",
      "outputs": [],
      "stateMutability": "payable",
      "type": "function"
    }
  ],
  "bytecode": "0x6080604052600160005560016003556000600d60006101000a81548160ff021916908360028111156200005b577f4e487b7100000000000000000000000000000000000000000000000000000000600052602160045260246000fd5b02179055503480156200006d57600080fd5b50604051620016d8380380620016d8833981810160405281019062000093919062000307565b600080815480929190620000a79062000554565b91905055508760018190555086600281905550856004819055506000600560006101000a81548160ff0219169083151502179055508360069080519060200190620000f4929190620001b7565b5082600790805190602001906200010d929190620001b7565b50846008908051906020019062000126929190620001b7565b5080600960006101000a81548173ffffffffffffffffffffffffffffffffffffffff021916908373ffffffffffffffffffffffffffffffffffffffff16021790555081600a60006101000a81548173ffffffffffffffffffffffffffffffffffffffff021916908373ffffffffffffffffffffffffffffffffffffffff160217905550505050505050505062000674565b828054620001c590620004e8565b90600052602060002090601f016020900481019282620001e9576000855562000235565b82601f106200020457805160ff191683800117855562000235565b8280016001018555821562000235579182015b828111156200023457825182559160200191906001019062000217565b5b50905062000244919062000248565b5090565b5b808211156200026357600081600090555060010162000249565b5090565b60006200027e62000278846200043e565b62000415565b9050828152602081018484840111156200029757600080fd5b620002a4848285620004b2565b509392505050565b600081519050620002bd8162000640565b92915050565b600082601f830112620002d557600080fd5b8151620002e784826020860162000267565b91505092915050565b60008151905062000301816200065a565b92915050565b600080600080600080600080610100898b0312156200032557600080fd5b6000620003358b828c01620002f0565b9850506020620003488b828c01620002f0565b97505060406200035b8b828c01620002f0565b965050606089015167ffffffffffffffff8111156200037957600080fd5b620003878b828c01620002c3565b955050608089015167ffffffffffffffff811115620003a557600080fd5b620003b38b828c01620002c3565b94505060a089015167ffffffffffffffff811115620003d157600080fd5b620003df8b828c01620002c3565b93505060c0620003f28b828c01620002ac565b92505060e0620004058b828c01620002ac565b9150509295985092959890939650565b60006200042162000434565b90506200042f82826200051e565b919050565b6000604051905090565b600067ffffffffffffffff8211156200045c576200045b62000600565b5b62000467826200062f565b9050602081019050919050565b6000620004818262000488565b9050919050565b600073ffffffffffffffffffffffffffffffffffffffff82169050919050565b6000819050919050565b60005b83811015620004d2578082015181840152602081019050620004b5565b83811115620004e2576000848401525b50505050565b600060028204905060018216806200050157607f821691505b60208210811415620005185762000517620005d1565b5b50919050565b62000529826200062f565b810181811067ffffffffffffffff821117156200054b576200054a62000600565b5b80604052505050565b60006200056182620004a8565b91507fffffffffffffffffffffffffffffffffffffffffffffffffffffffffffffffff821415620005975762000596620005a2565b5b600182019050919050565b7f4e487b7100000000000000000000000000000000000000000000000000000000600052601160045260246000fd5b7f4e487b7100000000000000000000000000000000000000000000000000000000600052602260045260246000fd5b7f4e487b7100000000000000000000000000000000000000000000000000000000600052604160045260246000fd5b6000601f19601f8301169050919050565b6200064b8162000474565b81146200065757600080fd5b50565b6200066581620004a8565b81146200067157600080fd5b50565b61105480620006846000396000f3fe6080604052600436106100915760003560e01c8063c001e5c711610059578063c001e5c71461012b578063c040e6b814610156578063ccc5d7d414610181578063ced6d267146101b7578063fbbf93a0146101c157610091565b806312065fe01461009657806338e771ab146100c15780634e69d560146100cb57806369d89575146100f6578063b97a7d2414610100575b600080fd5b3480156100a257600080fd5b506100ab6101e5565b6040516100b89190610c71565b60405180910390f35b6100c96101ed565b005b3480156100d757600080fd5b506100e0610366565b6040516100ed9190610c56565b60405180910390f35b6100fe61037d565b005b34801561010c57600080fd5b50610115610478565b6040516101229190610c71565b60405180910390f35b34801561013757600080fd5b50610140610482565b60405161014d9190610c3b565b60405180910390f35b34801561016257600080fd5b5061016b61049f565b6040516101789190610c56565b60405180910390f35b34801561018d57600080fd5b506101966104b2565b6040516101ae9c9b9a99989796959493929190610d10565b60405180910390f35b6101bf6106f9565b005b6101c9610987565b6040516101dc9796959493929190610c8c565b60405180910390f35b600047905090565b6002806002811115610228577f4e487b7100000000000000000000000000000000000000000000000000000000600052602160045260246000fd5b600d60009054906101000a900460ff166002811115610270577f4e487b7100000000000000000000000000000000000000000000000000000000600052602160045260246000fd5b1461027a57600080fd5b6000600190505b6003548111610362576000600c600083815260200190815260200160002060009054906101000a900473ffffffffffffffffffffffffffffffffffffffff1690506000600b60008373ffffffffffffffffffffffffffffffffffffffff1673ffffffffffffffffffffffffffffffffffffffff1681526020019081526020016000205490508173ffffffffffffffffffffffffffffffffffffffff166108fc829081150290604051600060405180830381858888f1935050505015801561034c573d6000803e3d6000fd5b505050808061035a90610f23565b915050610281565b5050565b6000600d60009054906101000a900460ff16905090565b60018060028111156103b8577f4e487b7100000000000000000000000000000000000000000000000000000000600052602160045260246000fd5b600d60009054906101000a900460ff166002811115610400577f4e487b7100000000000000000000000000000000000000000000000000000000600052602160045260246000fd5b1461040a57600080fd5b600a60009054906101000a900473ffffffffffffffffffffffffffffffffffffffff1673ffffffffffffffffffffffffffffffffffffffff166108fc6001549081150290604051600060405180830381858888f19350505050158015610474573d6000803e3d6000fd5b5050565b6000600154905090565b6000600454421115610497576001905061049c565b600090505b90565b600d60009054906101000a900460ff1681565b60008060008060006060806060600080600080600154600254600354600454600560009054906101000a900460ff16600860066007600960009054906101000a900473ffffffffffffffffffffffffffffffffffffffff16600a60009054906101000a900473ffffffffffffffffffffffffffffffffffffffff16304786805461053b90610ef1565b80601f016020809104026020016040519081016040528092919081815260200182805461056790610ef1565b80156105b45780601f10610589576101008083540402835291602001916105b4565b820191906000526020600020905b81548152906001019060200180831161059757829003601f168201915b505050505096508580546105c790610ef1565b80601f01602080910402602001604051908101604052809291908181526020018280546105f390610ef1565b80156106405780601f1061061557610100808354040283529160200191610640565b820191906000526020600020905b81548152906001019060200180831161062357829003601f168201915b5050505050955084805461065390610ef1565b80601f016020809104026020016040519081016040528092919081815260200182805461067f90610ef1565b80156106cc5780601f106106a1576101008083540402835291602001916106cc565b820191906000526020600020905b8154815290600101906020018083116106af57829003601f168201915b505050505094509b509b509b509b509b509b509b509b509b509b509b509b50909192939495969798999a9b565b6000806002811115610734577f4e487b7100000000000000000000000000000000000000000000000000000000600052602160045260246000fd5b600d60009054906101000a900460ff16600281111561077c577f4e487b7100000000000000000000000000000000000000000000000000000000600052602160045260246000fd5b1461078657600080fd5b60025434101561079557600080fd5b6004544211156107a457600080fd5b6000600b60003373ffffffffffffffffffffffffffffffffffffffff1673ffffffffffffffffffffffffffffffffffffffff1681526020019081526020016000205414156108af5734600b60003373ffffffffffffffffffffffffffffffffffffffff1673ffffffffffffffffffffffffffffffffffffffff168152602001908152602001600020600082825461083b9190610dfb565b9250508190555033600c60006003600081548092919061085a90610f23565b91905055815260200190815260200160002060006101000a81548173ffffffffffffffffffffffffffffffffffffffff021916908373ffffffffffffffffffffffffffffffffffffffff160217905550610906565b34600b60003373ffffffffffffffffffffffffffffffffffffffff1673ffffffffffffffffffffffffffffffffffffffff16815260200190815260200160002060008282546108fe9190610dfb565b925050819055505b6001544710610984576001600d60006101000a81548160ff0219169083600281111561095b577f4e487b7100000000000000000000000000000000000000000000000000000000600052602160045260246000fd5b02179055506001600560006101000a81548160ff02191690831515021790555061098361037d565b5b50565b6000606080606060008060008061099c610482565b905080156109fe576002600d60006101000a81548160ff021916908360028111156109f0577f4e487b7100000000000000000000000000000000000000000000000000000000600052602160045260246000fd5b02179055506109fd6101ed565b5b600154600860066007308547858054610a1690610ef1565b80601f0160208091040260200160405190810160405280929190818152602001828054610a4290610ef1565b8015610a8f5780601f10610a6457610100808354040283529160200191610a8f565b820191906000526020600020905b815481529060010190602001808311610a7257829003601f168201915b50505050509550848054610aa290610ef1565b80601f0160208091040260200160405190810160405280929190818152602001828054610ace90610ef1565b8015610b1b5780601f10610af057610100808354040283529160200191610b1b565b820191906000526020600020905b815481529060010190602001808311610afe57829003601f168201915b50505050509450838054610b2e90610ef1565b80601f0160208091040260200160405190810160405280929190818152602001828054610b5a90610ef1565b8015610ba75780601f10610b7c57610100808354040283529160200191610ba7565b820191906000526020600020905b815481529060010190602001808311610b8a57829003601f168201915b5050505050935097509750975097509750975097505090919293949596565b610bcf81610e51565b82525050565b610bde81610e63565b82525050565b610bed81610eac565b82525050565b6000610bfe82610ddf565b610c088185610dea565b9350610c18818560208601610ebe565b610c2181610ff9565b840191505092915050565b610c3581610ea2565b82525050565b6000602082019050610c506000830184610bd5565b92915050565b6000602082019050610c6b6000830184610be4565b92915050565b6000602082019050610c866000830184610c2c565b92915050565b600060e082019050610ca1600083018a610c2c565b8181036020830152610cb38189610bf3565b90508181036040830152610cc78188610bf3565b90508181036060830152610cdb8187610bf3565b9050610cea6080830186610bc6565b610cf760a0830185610bd5565b610d0460c0830184610c2c565b98975050505050505050565b600061018082019050610d26600083018f610c2c565b610d33602083018e610c2c565b610d40604083018d610c2c565b610d4d606083018c610c2c565b610d5a608083018b610bd5565b81810360a0830152610d6c818a610bf3565b905081810360c0830152610d808189610bf3565b905081810360e0830152610d948188610bf3565b9050610da4610100830187610bc6565b610db2610120830186610bc6565b610dc0610140830185610bc6565b610dce610160830184610c2c565b9d9c50505050505050505050505050565b600081519050919050565b600082825260208201905092915050565b6000610e0682610ea2565b9150610e1183610ea2565b9250827fffffffffffffffffffffffffffffffffffffffffffffffffffffffffffffffff03821115610e4657610e45610f6c565b5b828201905092915050565b6000610e5c82610e82565b9050919050565b60008115159050919050565b6000819050610e7d8261100a565b919050565b600073ffffffffffffffffffffffffffffffffffffffff82169050919050565b6000819050919050565b6000610eb782610e6f565b9050919050565b60005b83811015610edc578082015181840152602081019050610ec1565b83811115610eeb576000848401525b50505050565b60006002820490506001821680610f0957607f821691505b60208210811415610f1d57610f1c610fca565b5b50919050565b6000610f2e82610ea2565b91507fffffffffffffffffffffffffffffffffffffffffffffffffffffffffffffffff821415610f6157610f60610f6c565b5b600182019050919050565b7f4e487b7100000000000000000000000000000000000000000000000000000000600052601160045260246000fd5b7f4e487b7100000000000000000000000000000000000000000000000000000000600052602160045260246000fd5b7f4e487b7100000000000000000000000000000000000000000000000000000000600052602260045260246000fd5b6000601f19601f8301169050919050565b6003811061101b5761101a610f9b565b5b5056fea2646970667358221220401de9cc468f4d6dc65754993631aa48202d261ef41d7731d2dc36abcb34a19d64736f6c63430008010033",
  "immutableReferences": {},
  "source": "// SPDX-License-Identifier: GPL-3.0\r\npragma solidity >=0.7.0 <0.9.0;\r\n\r\ncontract FundraiserStore {\r\n    Fundraiser[] public fundraisers;\r\n    \r\n    function createFundraiser(uint _goalAmount, uint _minDonation, uint256 _expiryDate, string memory _hostName, string memory _title, string memory _description, address _recipientAddress) public {\r\n        address hostAddress = msg.sender;\r\n        Fundraiser _fundraiser = new Fundraiser(_goalAmount, _minDonation, _expiryDate, _hostName, _title, _description, _recipientAddress, hostAddress);\r\n        fundraisers.push(_fundraiser);\r\n    }\r\n    \r\n    function getAll() view public returns(Fundraiser[] memory) {\r\n        return fundraisers;\r\n    }\r\n    \r\n    function getFundraiserGoal(Fundraiser _fundraiserId) view public returns(uint) {\r\n        for(uint i=0; i<fundraisers.length; i++) {\r\n            if(_fundraiserId == fundraisers[i]) {\r\n                Fundraiser _fundraiser = Fundraiser(fundraisers[i]);\r\n                return _fundraiser.getGoal();\r\n            }\r\n        }\r\n        return 0;\r\n    } \r\n    \r\n}\r\n\r\ncontract Fundraiser {\r\n    uint fundraiserId = 1;\r\n    uint goalAmount;\r\n    uint minDonation;\r\n    uint donatorCount = 1;\r\n    uint256 expiryDate;\r\n    bool isCompleted;\r\n    string title;\r\n    string description;    \r\n    string hostName;\r\n    address hostAddress;\r\n    address recipientAddress;\r\n    mapping(address => uint) donators;\r\n    mapping(uint => address) donatorsAddress;\r\n    enum Stage {Donation, Complete, Expired}\r\n    Stage public stage = Stage.Donation;\r\n    \r\n    // 10000, 100, 1653067368, 'shanHost',  'Test Fundraiser', 'This is a test fundraiser for my first test', 0xdD870fA1b7C4700F2BD7f44238821C26f7392148\r\n    constructor(uint _goalAmount, uint _minDonation, uint256 _expiryDate, string memory _hostName, string memory _title, string memory _description, address _recipientAddress, address _hostAddress) {\r\n        fundraiserId++;\r\n        goalAmount = _goalAmount;\r\n        minDonation = _minDonation;\r\n        expiryDate = _expiryDate;\r\n        isCompleted = false;\r\n        title = _title;\r\n        description = _description;\r\n        hostName = _hostName;\r\n        hostAddress = _hostAddress;\r\n        recipientAddress = _recipientAddress;\r\n    }\r\n    \r\n    modifier onlyHost{\r\n        require(msg.sender == hostAddress);\r\n        _;\r\n    }\r\n    \r\n    modifier validStage(Stage reqStage){\r\n        require(stage == reqStage);\r\n        _;\r\n    }\r\n    \r\n    modifier minDonate{\r\n        require(msg.value >= minDonation);\r\n        _;\r\n    }\r\n    \r\n    function isFundraiserExpired() view public returns(bool) {\r\n        if(block.timestamp > expiryDate){\r\n            return true;\r\n        } else {\r\n            return false;\r\n        }\r\n    }\r\n    \r\n    function getDetails() public payable returns (uint _goalAmount, string memory _hostName, string memory _title, string memory _description, address _fundraiserAddress, bool _isExpired, uint _fundraiserBalance) {\r\n        bool isExpired = isFundraiserExpired();\r\n        if(isExpired) {\r\n            stage = Stage.Expired;\r\n            refundAll();\r\n        }\r\n        return (goalAmount, hostName, title, description, address(this), isExpired, address(this).balance);\r\n    }\r\n    \r\n    function getAllDetails() view public returns (uint _goalAmount, uint _minDonation, uint _donatorCount, uint256 _expiryDate, bool _isCompleted, string memory _hostName, string memory _title, string memory _description, address _hostAddress, address _recipientAddress, address _fundraiserAddress, uint _fundraiserBalance) {\r\n        return (goalAmount, minDonation, donatorCount, expiryDate, isCompleted, hostName, title, description, hostAddress, recipientAddress, address(this), address(this).balance);\r\n    }\r\n    \r\n    function getGoal() view public returns (uint) {\r\n        return goalAmount;\r\n    }\r\n    \r\n    function getBalance() view public returns (uint) {\r\n        return address(this).balance;\r\n    }\r\n    \r\n    function getStatus() view public returns (Stage) {\r\n        return stage;\r\n    }\r\n    \r\n    \r\n    function addDonation() public payable validStage(Stage.Donation) minDonate {\r\n        if(block.timestamp > expiryDate){\r\n            revert();\r\n        } else {\r\n            if(donators[msg.sender] == 0){\r\n                donators[msg.sender] += msg.value;\r\n                donatorsAddress[donatorCount++] = msg.sender;    \r\n            } else {\r\n                donators[msg.sender] += msg.value;\r\n            }\r\n            //change state if goal is completed. this.balance already adds the msg.value\r\n            if(address(this).balance >= goalAmount){\r\n                stage = Stage.Complete;\r\n                isCompleted = true;\r\n                releaseFunds();\r\n            }\r\n        }\r\n    }\r\n    \r\n    function refundAll() public payable validStage(Stage.Expired) {\r\n        for(uint i=1; i <= donatorCount; i++) {\r\n            address _to = donatorsAddress[i];\r\n            uint _amount = donators[_to];\r\n            payable(_to).transfer(_amount);\r\n        }\r\n    }\r\n    \r\n    function releaseFunds() public payable validStage(Stage.Complete) { \r\n        payable(recipientAddress).transfer(goalAmount);\r\n    }\r\n    \r\n    \r\n}",
  "sourcePath": "C:/Users/sphat/Desktop/BE Project/Code/fundraiser-dapp-eth/contracts/FundraiserContract.sol",
  "compiler": {
    "name": "solc",
    "version": "0.8.1+commit.df193b15.Emscripten.clang"
  },
  "schemaVersion": "3.3.4",
  "updatedAt": "2021-05-21T15:02:19.343Z",
  "devdoc": {
    "kind": "dev",
    "methods": {},
    "version": 1
  },
  "userdoc": {
    "kind": "user",
    "methods": {},
    "version": 1
  }
}