{
  "contractName": "Fundraiser",
  "abi": [
    {
      "inputs": [
        {
          "internalType": "uint256",
          "name": "_goalAmount",
          "type": "uint256"
        },
        {
          "internalType": "uint256",
          "name": "_minDonation",
          "type": "uint256"
        },
        {
          "internalType": "uint256",
          "name": "_expiryDate",
          "type": "uint256"
        },
        {
          "internalType": "string",
          "name": "_hostName",
          "type": "string"
        },
        {
          "internalType": "string",
          "name": "_title",
          "type": "string"
        },
        {
          "internalType": "string",
          "name": "_description",
          "type": "string"
        },
        {
          "internalType": "address",
          "name": "_recipientAddress",
          "type": "address"
        },
        {
          "internalType": "address",
          "name": "_hostAddress",
          "type": "address"
        }
      ],
      "stateMutability": "nonpayable",
      "type": "constructor"
    },
    {
      "inputs": [],
      "name": "stage",
      "outputs": [
        {
          "internalType": "enum Fundraiser.Stage",
          "name": "",
          "type": "uint8"
        }
      ],
      "stateMutability": "view",
      "type": "function"
    },
    {
      "inputs": [],
      "name": "getDetails",
      "outputs": [
        {
          "internalType": "uint256",
          "name": "_goalAmount",
          "type": "uint256"
        },
        {
          "internalType": "string",
          "name": "_hostName",
          "type": "string"
        },
        {
          "internalType": "string",
          "name": "_title",
          "type": "string"
        },
        {
          "internalType": "string",
          "name": "_description",
          "type": "string"
        },
        {
          "internalType": "address",
          "name": "_fundraiserAddress",
          "type": "address"
        }
      ],
      "stateMutability": "view",
      "type": "function"
    },
    {
      "inputs": [],
      "name": "getAllDetails",
      "outputs": [
        {
          "internalType": "uint256",
          "name": "_goalAmount",
          "type": "uint256"
        },
        {
          "internalType": "uint256",
          "name": "_minDonation",
          "type": "uint256"
        },
        {
          "internalType": "uint256",
          "name": "_donatorCount",
          "type": "uint256"
        },
        {
          "internalType": "uint256",
          "name": "_expiryDate",
          "type": "uint256"
        },
        {
          "internalType": "bool",
          "name": "_isCompleted",
          "type": "bool"
        },
        {
          "internalType": "string",
          "name": "_hostName",
          "type": "string"
        },
        {
          "internalType": "string",
          "name": "_title",
          "type": "string"
        },
        {
          "internalType": "string",
          "name": "_description",
          "type": "string"
        },
        {
          "internalType": "address",
          "name": "_hostAddress",
          "type": "address"
        },
        {
          "internalType": "address",
          "name": "_recipientAddress",
          "type": "address"
        },
        {
          "internalType": "address",
          "name": "_fundraiserAddress",
          "type": "address"
        },
        {
          "internalType": "uint256",
          "name": "_fundraiserBalance",
          "type": "uint256"
        }
      ],
      "stateMutability": "view",
      "type": "function"
    },
    {
      "inputs": [],
      "name": "getGoal",
      "outputs": [
        {
          "internalType": "uint256",
          "name": "",
          "type": "uint256"
        }
      ],
      "stateMutability": "view",
      "type": "function"
    },
    {
      "inputs": [],
      "name": "getBalance",
      "outputs": [
        {
          "internalType": "uint256",
          "name": "",
          "type": "uint256"
        }
      ],
      "stateMutability": "view",
      "type": "function"
    },
    {
      "inputs": [],
      "name": "getStatus",
      "outputs": [
        {
          "internalType": "enum Fundraiser.Stage",
          "name": "",
          "type": "uint8"
        }
      ],
      "stateMutability": "view",
      "type": "function"
    },
    {
      "inputs": [
        {
          "internalType": "uint256",
          "name": "_currTime",
          "type": "uint256"
        }
      ],
      "name": "addDonation",
      "outputs": [],
      "stateMutability": "payable",
      "type": "function"
    },
    {
      "inputs": [],
      "name": "refundAll",
      "outputs": [],
      "stateMutability": "payable",
      "type": "function"
    },
    {
      "inputs": [],
      "name": "releaseFunds",
      "outputs": [],
      "stateMutability": "payable",
      "type": "function"
    }
  ],
  "bytecode": "0x6080604052600160005560016003556000600d60006101000a81548160ff021916908360028111156200005b577f4e487b7100000000000000000000000000000000000000000000000000000000600052602160045260246000fd5b02179055503480156200006d57600080fd5b50604051620015bc380380620015bc833981810160405281019062000093919062000307565b600080815480929190620000a79062000554565b91905055508760018190555086600281905550856004819055506000600560006101000a81548160ff0219169083151502179055508360069080519060200190620000f4929190620001b7565b5082600790805190602001906200010d929190620001b7565b50846008908051906020019062000126929190620001b7565b5080600960006101000a81548173ffffffffffffffffffffffffffffffffffffffff021916908373ffffffffffffffffffffffffffffffffffffffff16021790555081600a60006101000a81548173ffffffffffffffffffffffffffffffffffffffff021916908373ffffffffffffffffffffffffffffffffffffffff160217905550505050505050505062000674565b828054620001c590620004e8565b90600052602060002090601f016020900481019282620001e9576000855562000235565b82601f106200020457805160ff191683800117855562000235565b8280016001018555821562000235579182015b828111156200023457825182559160200191906001019062000217565b5b50905062000244919062000248565b5090565b5b808211156200026357600081600090555060010162000249565b5090565b60006200027e62000278846200043e565b62000415565b9050828152602081018484840111156200029757600080fd5b620002a4848285620004b2565b509392505050565b600081519050620002bd8162000640565b92915050565b600082601f830112620002d557600080fd5b8151620002e784826020860162000267565b91505092915050565b60008151905062000301816200065a565b92915050565b600080600080600080600080610100898b0312156200032557600080fd5b6000620003358b828c01620002f0565b9850506020620003488b828c01620002f0565b97505060406200035b8b828c01620002f0565b965050606089015167ffffffffffffffff8111156200037957600080fd5b620003878b828c01620002c3565b955050608089015167ffffffffffffffff811115620003a557600080fd5b620003b38b828c01620002c3565b94505060a089015167ffffffffffffffff811115620003d157600080fd5b620003df8b828c01620002c3565b93505060c0620003f28b828c01620002ac565b92505060e0620004058b828c01620002ac565b9150509295985092959890939650565b60006200042162000434565b90506200042f82826200051e565b919050565b6000604051905090565b600067ffffffffffffffff8211156200045c576200045b62000600565b5b62000467826200062f565b9050602081019050919050565b6000620004818262000488565b9050919050565b600073ffffffffffffffffffffffffffffffffffffffff82169050919050565b6000819050919050565b60005b83811015620004d2578082015181840152602081019050620004b5565b83811115620004e2576000848401525b50505050565b600060028204905060018216806200050157607f821691505b60208210811415620005185762000517620005d1565b5b50919050565b62000529826200062f565b810181811067ffffffffffffffff821117156200054b576200054a62000600565b5b80604052505050565b60006200056182620004a8565b91507fffffffffffffffffffffffffffffffffffffffffffffffffffffffffffffffff821415620005975762000596620005a2565b5b600182019050919050565b7f4e487b7100000000000000000000000000000000000000000000000000000000600052601160045260246000fd5b7f4e487b7100000000000000000000000000000000000000000000000000000000600052602260045260246000fd5b7f4e487b7100000000000000000000000000000000000000000000000000000000600052604160045260246000fd5b6000601f19601f8301169050919050565b6200064b8162000474565b81146200065757600080fd5b50565b6200066581620004a8565b81146200067157600080fd5b50565b610f3880620006846000396000f3fe6080604052600436106100865760003560e01c8063b97a7d2411610059578063b97a7d24146100f5578063c040e6b814610120578063ccc5d7d41461014b578063d8251a1414610181578063fbbf93a01461019d57610086565b806312065fe01461008b57806338e771ab146100b65780634e69d560146100c057806369d89575146100eb575b600080fd5b34801561009757600080fd5b506100a06101cc565b6040516100ad9190610b5a565b60405180910390f35b6100be6101d4565b005b3480156100cc57600080fd5b506100d56102bf565b6040516100e29190610b3f565b60405180910390f35b6100f36102d6565b005b34801561010157600080fd5b5061010a6103d1565b6040516101179190610b5a565b60405180910390f35b34801561012c57600080fd5b506101356103db565b6040516101429190610b3f565b60405180910390f35b34801561015757600080fd5b506101606103ee565b6040516101789c9b9a99989796959493929190610bdd565b60405180910390f35b61019b60048036038101906101969190610aa1565b610635565b005b3480156101a957600080fd5b506101b26108c4565b6040516101c3959493929190610b75565b60405180910390f35b600047905090565b6000600190505b60035481116102bc576000600c600083815260200190815260200160002060009054906101000a900473ffffffffffffffffffffffffffffffffffffffff1690506000600b60008373ffffffffffffffffffffffffffffffffffffffff1673ffffffffffffffffffffffffffffffffffffffff1681526020019081526020016000205490508173ffffffffffffffffffffffffffffffffffffffff166108fc829081150290604051600060405180830381858888f193505050501580156102a6573d6000803e3d6000fd5b50505080806102b490610df0565b9150506101db565b50565b6000600d60009054906101000a900460ff16905090565b6001806002811115610311577f4e487b7100000000000000000000000000000000000000000000000000000000600052602160045260246000fd5b600d60009054906101000a900460ff166002811115610359577f4e487b7100000000000000000000000000000000000000000000000000000000600052602160045260246000fd5b1461036357600080fd5b600a60009054906101000a900473ffffffffffffffffffffffffffffffffffffffff1673ffffffffffffffffffffffffffffffffffffffff166108fc6001549081150290604051600060405180830381858888f193505050501580156103cd573d6000803e3d6000fd5b5050565b6000600154905090565b600d60009054906101000a900460ff1681565b60008060008060006060806060600080600080600154600254600354600454600560009054906101000a900460ff16600860066007600960009054906101000a900473ffffffffffffffffffffffffffffffffffffffff16600a60009054906101000a900473ffffffffffffffffffffffffffffffffffffffff16304786805461047790610dbe565b80601f01602080910402602001604051908101604052809291908181526020018280546104a390610dbe565b80156104f05780601f106104c5576101008083540402835291602001916104f0565b820191906000526020600020905b8154815290600101906020018083116104d357829003601f168201915b5050505050965085805461050390610dbe565b80601f016020809104026020016040519081016040528092919081815260200182805461052f90610dbe565b801561057c5780601f106105515761010080835404028352916020019161057c565b820191906000526020600020905b81548152906001019060200180831161055f57829003601f168201915b5050505050955084805461058f90610dbe565b80601f01602080910402602001604051908101604052809291908181526020018280546105bb90610dbe565b80156106085780601f106105dd57610100808354040283529160200191610608565b820191906000526020600020905b8154815290600101906020018083116105eb57829003601f168201915b505050505094509b509b509b509b509b509b509b509b509b509b509b509b50909192939495969798999a9b565b6000806002811115610670577f4e487b7100000000000000000000000000000000000000000000000000000000600052602160045260246000fd5b600d60009054906101000a900460ff1660028111156106b8577f4e487b7100000000000000000000000000000000000000000000000000000000600052602160045260246000fd5b146106c257600080fd5b6002543410156106d157600080fd5b6004548211156106e057600080fd5b6000600b60003373ffffffffffffffffffffffffffffffffffffffff1673ffffffffffffffffffffffffffffffffffffffff1681526020019081526020016000205414156107eb5734600b60003373ffffffffffffffffffffffffffffffffffffffff1673ffffffffffffffffffffffffffffffffffffffff16815260200190815260200160002060008282546107779190610cc8565b9250508190555033600c60006003600081548092919061079690610df0565b91905055815260200190815260200160002060006101000a81548173ffffffffffffffffffffffffffffffffffffffff021916908373ffffffffffffffffffffffffffffffffffffffff160217905550610842565b34600b60003373ffffffffffffffffffffffffffffffffffffffff1673ffffffffffffffffffffffffffffffffffffffff168152602001908152602001600020600082825461083a9190610cc8565b925050819055505b60015447106108c0576001600d60006101000a81548160ff02191690836002811115610897577f4e487b7100000000000000000000000000000000000000000000000000000000600052602160045260246000fd5b02179055506001600560006101000a81548160ff0219169083151502179055506108bf6102d6565b5b5050565b600060608060606000600154600860066007308380546108e390610dbe565b80601f016020809104026020016040519081016040528092919081815260200182805461090f90610dbe565b801561095c5780601f106109315761010080835404028352916020019161095c565b820191906000526020600020905b81548152906001019060200180831161093f57829003601f168201915b5050505050935082805461096f90610dbe565b80601f016020809104026020016040519081016040528092919081815260200182805461099b90610dbe565b80156109e85780601f106109bd576101008083540402835291602001916109e8565b820191906000526020600020905b8154815290600101906020018083116109cb57829003601f168201915b505050505092508180546109fb90610dbe565b80601f0160208091040260200160405190810160405280929190818152602001828054610a2790610dbe565b8015610a745780601f10610a4957610100808354040283529160200191610a74565b820191906000526020600020905b815481529060010190602001808311610a5757829003601f168201915b50505050509150945094509450945094509091929394565b600081359050610a9b81610eeb565b92915050565b600060208284031215610ab357600080fd5b6000610ac184828501610a8c565b91505092915050565b610ad381610d1e565b82525050565b610ae281610d30565b82525050565b610af181610d79565b82525050565b6000610b0282610cac565b610b0c8185610cb7565b9350610b1c818560208601610d8b565b610b2581610ec6565b840191505092915050565b610b3981610d6f565b82525050565b6000602082019050610b546000830184610ae8565b92915050565b6000602082019050610b6f6000830184610b30565b92915050565b600060a082019050610b8a6000830188610b30565b8181036020830152610b9c8187610af7565b90508181036040830152610bb08186610af7565b90508181036060830152610bc48185610af7565b9050610bd36080830184610aca565b9695505050505050565b600061018082019050610bf3600083018f610b30565b610c00602083018e610b30565b610c0d604083018d610b30565b610c1a606083018c610b30565b610c27608083018b610ad9565b81810360a0830152610c39818a610af7565b905081810360c0830152610c4d8189610af7565b905081810360e0830152610c618188610af7565b9050610c71610100830187610aca565b610c7f610120830186610aca565b610c8d610140830185610aca565b610c9b610160830184610b30565b9d9c50505050505050505050505050565b600081519050919050565b600082825260208201905092915050565b6000610cd382610d6f565b9150610cde83610d6f565b9250827fffffffffffffffffffffffffffffffffffffffffffffffffffffffffffffffff03821115610d1357610d12610e39565b5b828201905092915050565b6000610d2982610d4f565b9050919050565b60008115159050919050565b6000819050610d4a82610ed7565b919050565b600073ffffffffffffffffffffffffffffffffffffffff82169050919050565b6000819050919050565b6000610d8482610d3c565b9050919050565b60005b83811015610da9578082015181840152602081019050610d8e565b83811115610db8576000848401525b50505050565b60006002820490506001821680610dd657607f821691505b60208210811415610dea57610de9610e97565b5b50919050565b6000610dfb82610d6f565b91507fffffffffffffffffffffffffffffffffffffffffffffffffffffffffffffffff821415610e2e57610e2d610e39565b5b600182019050919050565b7f4e487b7100000000000000000000000000000000000000000000000000000000600052601160045260246000fd5b7f4e487b7100000000000000000000000000000000000000000000000000000000600052602160045260246000fd5b7f4e487b7100000000000000000000000000000000000000000000000000000000600052602260045260246000fd5b6000601f19601f8301169050919050565b60038110610ee857610ee7610e68565b5b50565b610ef481610d6f565b8114610eff57600080fd5b5056fea26469706673582212202db171c1e9817ec37a17bfdf1c32e7d3f85acaffa25a28484369d4f897b0875f64736f6c63430008010033",
  "immutableReferences": {},
  "source": "// SPDX-License-Identifier: GPL-3.0\r\npragma solidity >=0.7.0 <0.9.0;\r\n\r\ncontract FundraiserStore {\r\n    Fundraiser[] public fundraisers;\r\n    \r\n    function createFundraiser(uint _goalAmount, uint _minDonation, uint256 _expiryDate, string memory _hostName, string memory _title, string memory _description, address _recipientAddress) public {\r\n        address hostAddress = msg.sender;\r\n        Fundraiser _fundraiser = new Fundraiser(_goalAmount, _minDonation, _expiryDate, _hostName, _title, _description, _recipientAddress, hostAddress);\r\n        fundraisers.push(_fundraiser);\r\n    }\r\n    \r\n    function getAll() view public returns(Fundraiser[] memory) {\r\n        return fundraisers;\r\n    }\r\n    \r\n    function getFundraiserGoal(Fundraiser _fundraiserId) view public returns(uint) {\r\n        for(uint i=0; i<fundraisers.length; i++) {\r\n            if(_fundraiserId == fundraisers[i]) {\r\n                Fundraiser _fundraiser = Fundraiser(fundraisers[i]);\r\n                return _fundraiser.getGoal();\r\n            }\r\n        }\r\n        return 0;\r\n    } \r\n    \r\n}\r\n\r\ncontract Fundraiser {\r\n    uint fundraiserId = 1;\r\n    uint goalAmount;\r\n    uint minDonation;\r\n    uint donatorCount = 1;\r\n    uint256 expiryDate;\r\n    bool isCompleted;\r\n    string title;\r\n    string description;    \r\n    string hostName;\r\n    address hostAddress;\r\n    address recipientAddress;\r\n    mapping(address => uint) donators;\r\n    mapping(uint => address) donatorsAddress;\r\n    enum Stage {Donation, Complete, Cancel}\r\n    Stage public stage = Stage.Donation;\r\n    \r\n    // 10000, 100, 16191360000, 'shanHost',  'Test Fundraiser', 'This is a test fundraiser for my first test', 0xdD870fA1b7C4700F2BD7f44238821C26f7392148\r\n    constructor(uint _goalAmount, uint _minDonation, uint256 _expiryDate, string memory _hostName, string memory _title, string memory _description, address _recipientAddress, address _hostAddress) {\r\n        fundraiserId++;\r\n        goalAmount = _goalAmount;\r\n        minDonation = _minDonation;\r\n        expiryDate = _expiryDate;\r\n        isCompleted = false;\r\n        title = _title;\r\n        description = _description;\r\n        hostName = _hostName;\r\n        hostAddress = _hostAddress;\r\n        recipientAddress = _recipientAddress;\r\n    }\r\n    \r\n    modifier onlyHost{\r\n        require(msg.sender == hostAddress);\r\n        _;\r\n    }\r\n    \r\n    modifier validStage(Stage reqStage){\r\n        require(stage == reqStage);\r\n        _;\r\n    }\r\n    \r\n    modifier minDonate{\r\n        require(msg.value >= minDonation);\r\n        _;\r\n    }\r\n    \r\n    \r\n    function getDetails() view public returns (uint _goalAmount, string memory _hostName, string memory _title, string memory _description, address _fundraiserAddress) {\r\n        return (goalAmount, hostName, title, description, address(this));\r\n    }\r\n    \r\n    function getAllDetails() view public returns (uint _goalAmount, uint _minDonation, uint _donatorCount, uint256 _expiryDate, bool _isCompleted, string memory _hostName, string memory _title, string memory _description, address _hostAddress, address _recipientAddress, address _fundraiserAddress, uint _fundraiserBalance) {\r\n        return (goalAmount, minDonation, donatorCount, expiryDate, isCompleted, hostName, title, description, hostAddress, recipientAddress, address(this), address(this).balance);\r\n    }\r\n    \r\n    function getGoal() view public returns (uint) {\r\n        return goalAmount;\r\n    }\r\n    \r\n    function getBalance() view public returns (uint) {\r\n        return address(this).balance;\r\n    }\r\n    \r\n    function getStatus() view public returns (Stage) {\r\n        return stage;\r\n    }\r\n    \r\n    \r\n    function addDonation(uint256 _currTime) public payable validStage(Stage.Donation) minDonate {\r\n        /*if(msg.value < minDonation) {\r\n            revert();*/\r\n        if(_currTime > expiryDate){\r\n            revert();\r\n        } else {\r\n            if(donators[msg.sender] == 0){\r\n                donators[msg.sender] += msg.value;\r\n                donatorsAddress[donatorCount++] = msg.sender;    \r\n            } else {\r\n                donators[msg.sender] += msg.value;\r\n            }\r\n            //change state if goal is completed. this.balance already adds the msg.value\r\n            if(address(this).balance >= goalAmount){\r\n                stage = Stage.Complete;\r\n                isCompleted = true;\r\n                releaseFunds();\r\n            }\r\n        }\r\n    }\r\n    \r\n    function refundAll() public payable {\r\n        for(uint i=1; i <= donatorCount; i++) {\r\n            address _to = donatorsAddress[i];\r\n            uint _amount = donators[_to];\r\n            payable(_to).transfer(_amount);\r\n        }\r\n    }\r\n    \r\n    function releaseFunds() public payable validStage(Stage.Complete) { \r\n        payable(recipientAddress).transfer(goalAmount);\r\n    }\r\n    \r\n    \r\n}",
  "sourcePath": "C:/Users/sphat/Desktop/BE Project/Code/fundraiser-dapp-eth/contracts/FundraiserContract.sol",
  "compiler": {
    "name": "solc",
    "version": "0.8.1+commit.df193b15.Emscripten.clang"
  },
  "schemaVersion": "3.3.4",
  "updatedAt": "2021-05-20T14:59:29.286Z",
  "devdoc": {
    "kind": "dev",
    "methods": {},
    "version": 1
  },
  "userdoc": {
    "kind": "user",
    "methods": {},
    "version": 1
  }
}