{
  "contractName": "Fundraiser",
  "abi": [
    {
      "inputs": [
        {
          "internalType": "uint256",
          "name": "_goalAmount",
          "type": "uint256"
        },
        {
          "internalType": "uint256",
          "name": "_minDonation",
          "type": "uint256"
        },
        {
          "internalType": "uint256",
          "name": "_expiryDate",
          "type": "uint256"
        },
        {
          "internalType": "string",
          "name": "_hostName",
          "type": "string"
        },
        {
          "internalType": "string",
          "name": "_title",
          "type": "string"
        },
        {
          "internalType": "string",
          "name": "_description",
          "type": "string"
        },
        {
          "internalType": "address",
          "name": "_recipientAddress",
          "type": "address"
        },
        {
          "internalType": "address",
          "name": "_hostAddress",
          "type": "address"
        }
      ],
      "stateMutability": "nonpayable",
      "type": "constructor"
    },
    {
      "inputs": [],
      "name": "getDetails",
      "outputs": [
        {
          "internalType": "uint256",
          "name": "_goalAmount",
          "type": "uint256"
        },
        {
          "internalType": "string",
          "name": "_hostName",
          "type": "string"
        },
        {
          "internalType": "string",
          "name": "_title",
          "type": "string"
        },
        {
          "internalType": "string",
          "name": "_description",
          "type": "string"
        },
        {
          "internalType": "address",
          "name": "_fundraiserAddress",
          "type": "address"
        }
      ],
      "stateMutability": "view",
      "type": "function"
    },
    {
      "inputs": [],
      "name": "getAllDetails",
      "outputs": [
        {
          "internalType": "uint256",
          "name": "_goalAmount",
          "type": "uint256"
        },
        {
          "internalType": "uint256",
          "name": "_minDonation",
          "type": "uint256"
        },
        {
          "internalType": "uint256",
          "name": "_donatorCount",
          "type": "uint256"
        },
        {
          "internalType": "uint256",
          "name": "_expiryDate",
          "type": "uint256"
        },
        {
          "internalType": "bool",
          "name": "_isCompleted",
          "type": "bool"
        },
        {
          "internalType": "string",
          "name": "_hostName",
          "type": "string"
        },
        {
          "internalType": "string",
          "name": "_title",
          "type": "string"
        },
        {
          "internalType": "string",
          "name": "_description",
          "type": "string"
        },
        {
          "internalType": "address",
          "name": "_hostAddress",
          "type": "address"
        },
        {
          "internalType": "address",
          "name": "_recipientAddress",
          "type": "address"
        },
        {
          "internalType": "address",
          "name": "_fundraiserAddress",
          "type": "address"
        },
        {
          "internalType": "uint256",
          "name": "_fundraiserBalance",
          "type": "uint256"
        }
      ],
      "stateMutability": "view",
      "type": "function"
    },
    {
      "inputs": [],
      "name": "getGoal",
      "outputs": [
        {
          "internalType": "uint256",
          "name": "",
          "type": "uint256"
        }
      ],
      "stateMutability": "view",
      "type": "function"
    },
    {
      "inputs": [],
      "name": "getBalance",
      "outputs": [
        {
          "internalType": "uint256",
          "name": "",
          "type": "uint256"
        }
      ],
      "stateMutability": "view",
      "type": "function"
    },
    {
      "inputs": [],
      "name": "addDonation",
      "outputs": [],
      "stateMutability": "payable",
      "type": "function"
    },
    {
      "inputs": [],
      "name": "refundAll",
      "outputs": [],
      "stateMutability": "payable",
      "type": "function"
    },
    {
      "inputs": [],
      "name": "releaseFunds",
      "outputs": [],
      "stateMutability": "payable",
      "type": "function"
    }
  ],
  "bytecode": "0x6080604052600160005560016003553480156200001b57600080fd5b5060405162001231380380620012318339818101604052810190620000419190620002b5565b600080815480929190620000559062000502565b91905055508760018190555086600281905550856004819055506000600560006101000a81548160ff0219169083151502179055508360069080519060200190620000a292919062000165565b508260079080519060200190620000bb92919062000165565b508460089080519060200190620000d492919062000165565b5080600960006101000a81548173ffffffffffffffffffffffffffffffffffffffff021916908373ffffffffffffffffffffffffffffffffffffffff16021790555081600a60006101000a81548173ffffffffffffffffffffffffffffffffffffffff021916908373ffffffffffffffffffffffffffffffffffffffff160217905550505050505050505062000622565b828054620001739062000496565b90600052602060002090601f016020900481019282620001975760008555620001e3565b82601f10620001b257805160ff1916838001178555620001e3565b82800160010185558215620001e3579182015b82811115620001e2578251825591602001919060010190620001c5565b5b509050620001f29190620001f6565b5090565b5b8082111562000211576000816000905550600101620001f7565b5090565b60006200022c6200022684620003ec565b620003c3565b9050828152602081018484840111156200024557600080fd5b6200025284828562000460565b509392505050565b6000815190506200026b81620005ee565b92915050565b600082601f8301126200028357600080fd5b81516200029584826020860162000215565b91505092915050565b600081519050620002af8162000608565b92915050565b600080600080600080600080610100898b031215620002d357600080fd5b6000620002e38b828c016200029e565b9850506020620002f68b828c016200029e565b9750506040620003098b828c016200029e565b965050606089015167ffffffffffffffff8111156200032757600080fd5b620003358b828c0162000271565b955050608089015167ffffffffffffffff8111156200035357600080fd5b620003618b828c0162000271565b94505060a089015167ffffffffffffffff8111156200037f57600080fd5b6200038d8b828c0162000271565b93505060c0620003a08b828c016200025a565b92505060e0620003b38b828c016200025a565b9150509295985092959890939650565b6000620003cf620003e2565b9050620003dd8282620004cc565b919050565b6000604051905090565b600067ffffffffffffffff8211156200040a5762000409620005ae565b5b6200041582620005dd565b9050602081019050919050565b60006200042f8262000436565b9050919050565b600073ffffffffffffffffffffffffffffffffffffffff82169050919050565b6000819050919050565b60005b838110156200048057808201518184015260208101905062000463565b8381111562000490576000848401525b50505050565b60006002820490506001821680620004af57607f821691505b60208210811415620004c657620004c56200057f565b5b50919050565b620004d782620005dd565b810181811067ffffffffffffffff82111715620004f957620004f8620005ae565b5b80604052505050565b60006200050f8262000456565b91507fffffffffffffffffffffffffffffffffffffffffffffffffffffffffffffffff82141562000545576200054462000550565b5b600182019050919050565b7f4e487b7100000000000000000000000000000000000000000000000000000000600052601160045260246000fd5b7f4e487b7100000000000000000000000000000000000000000000000000000000600052602260045260246000fd5b7f4e487b7100000000000000000000000000000000000000000000000000000000600052604160045260246000fd5b6000601f19601f8301169050919050565b620005f98162000422565b81146200060557600080fd5b50565b620006138162000456565b81146200061f57600080fd5b50565b610bff80620006326000396000f3fe6080604052600436106100705760003560e01c8063b97a7d241161004e578063b97a7d24146100b4578063ccc5d7d4146100df578063ced6d26714610115578063fbbf93a01461011f57610070565b806312065fe01461007557806338e771ab146100a057806369d89575146100aa575b600080fd5b34801561008157600080fd5b5061008a61014e565b60405161009791906108a0565b60405180910390f35b6100a8610156565b005b6100b2610241565b005b3480156100c057600080fd5b506100c96102ae565b6040516100d691906108a0565b60405180910390f35b3480156100eb57600080fd5b506100f46102b8565b60405161010c9c9b9a99989796959493929190610923565b60405180910390f35b61011d6104ff565b005b34801561012b57600080fd5b50610134610672565b6040516101459594939291906108bb565b60405180910390f35b600047905090565b6000600190505b600354811161023e576000600c600083815260200190815260200160002060009054906101000a900473ffffffffffffffffffffffffffffffffffffffff1690506000600b60008373ffffffffffffffffffffffffffffffffffffffff1673ffffffffffffffffffffffffffffffffffffffff1681526020019081526020016000205490508173ffffffffffffffffffffffffffffffffffffffff166108fc829081150290604051600060405180830381858888f19350505050158015610228573d6000803e3d6000fd5b505050808061023690610b11565b91505061015d565b50565b600a60009054906101000a900473ffffffffffffffffffffffffffffffffffffffff1673ffffffffffffffffffffffffffffffffffffffff166108fc6001549081150290604051600060405180830381858888f193505050501580156102ab573d6000803e3d6000fd5b50565b6000600154905090565b60008060008060006060806060600080600080600154600254600354600454600560009054906101000a900460ff16600860066007600960009054906101000a900473ffffffffffffffffffffffffffffffffffffffff16600a60009054906101000a900473ffffffffffffffffffffffffffffffffffffffff16304786805461034190610adf565b80601f016020809104026020016040519081016040528092919081815260200182805461036d90610adf565b80156103ba5780601f1061038f576101008083540402835291602001916103ba565b820191906000526020600020905b81548152906001019060200180831161039d57829003601f168201915b505050505096508580546103cd90610adf565b80601f01602080910402602001604051908101604052809291908181526020018280546103f990610adf565b80156104465780601f1061041b57610100808354040283529160200191610446565b820191906000526020600020905b81548152906001019060200180831161042957829003601f168201915b5050505050955084805461045990610adf565b80601f016020809104026020016040519081016040528092919081815260200182805461048590610adf565b80156104d25780601f106104a7576101008083540402835291602001916104d2565b820191906000526020600020905b8154815290600101906020018083116104b557829003601f168201915b505050505094509b509b509b509b509b509b509b509b509b509b509b509b50909192939495969798999a9b565b60025434101561050e57600080fd5b6000600b60003373ffffffffffffffffffffffffffffffffffffffff1673ffffffffffffffffffffffffffffffffffffffff1681526020019081526020016000205414156106195734600b60003373ffffffffffffffffffffffffffffffffffffffff1673ffffffffffffffffffffffffffffffffffffffff16815260200190815260200160002060008282546105a59190610a0e565b9250508190555033600c6000600360008154809291906105c490610b11565b91905055815260200190815260200160002060006101000a81548173ffffffffffffffffffffffffffffffffffffffff021916908373ffffffffffffffffffffffffffffffffffffffff160217905550610670565b34600b60003373ffffffffffffffffffffffffffffffffffffffff1673ffffffffffffffffffffffffffffffffffffffff16815260200190815260200160002060008282546106689190610a0e565b925050819055505b565b6000606080606060006001546008600660073083805461069190610adf565b80601f01602080910402602001604051908101604052809291908181526020018280546106bd90610adf565b801561070a5780601f106106df5761010080835404028352916020019161070a565b820191906000526020600020905b8154815290600101906020018083116106ed57829003601f168201915b5050505050935082805461071d90610adf565b80601f016020809104026020016040519081016040528092919081815260200182805461074990610adf565b80156107965780601f1061076b57610100808354040283529160200191610796565b820191906000526020600020905b81548152906001019060200180831161077957829003601f168201915b505050505092508180546107a990610adf565b80601f01602080910402602001604051908101604052809291908181526020018280546107d590610adf565b80156108225780601f106107f757610100808354040283529160200191610822565b820191906000526020600020905b81548152906001019060200180831161080557829003601f168201915b50505050509150945094509450945094509091929394565b61084381610a64565b82525050565b61085281610a76565b82525050565b6000610863826109f2565b61086d81856109fd565b935061087d818560208601610aac565b61088681610bb8565b840191505092915050565b61089a81610aa2565b82525050565b60006020820190506108b56000830184610891565b92915050565b600060a0820190506108d06000830188610891565b81810360208301526108e28187610858565b905081810360408301526108f68186610858565b9050818103606083015261090a8185610858565b9050610919608083018461083a565b9695505050505050565b600061018082019050610939600083018f610891565b610946602083018e610891565b610953604083018d610891565b610960606083018c610891565b61096d608083018b610849565b81810360a083015261097f818a610858565b905081810360c08301526109938189610858565b905081810360e08301526109a78188610858565b90506109b761010083018761083a565b6109c561012083018661083a565b6109d361014083018561083a565b6109e1610160830184610891565b9d9c50505050505050505050505050565b600081519050919050565b600082825260208201905092915050565b6000610a1982610aa2565b9150610a2483610aa2565b9250827fffffffffffffffffffffffffffffffffffffffffffffffffffffffffffffffff03821115610a5957610a58610b5a565b5b828201905092915050565b6000610a6f82610a82565b9050919050565b60008115159050919050565b600073ffffffffffffffffffffffffffffffffffffffff82169050919050565b6000819050919050565b60005b83811015610aca578082015181840152602081019050610aaf565b83811115610ad9576000848401525b50505050565b60006002820490506001821680610af757607f821691505b60208210811415610b0b57610b0a610b89565b5b50919050565b6000610b1c82610aa2565b91507fffffffffffffffffffffffffffffffffffffffffffffffffffffffffffffffff821415610b4f57610b4e610b5a565b5b600182019050919050565b7f4e487b7100000000000000000000000000000000000000000000000000000000600052601160045260246000fd5b7f4e487b7100000000000000000000000000000000000000000000000000000000600052602260045260246000fd5b6000601f19601f830116905091905056fea2646970667358221220ea0c8fbf6fde5f28dffbaac87bb4b77af10d70585584fb49be2d8d99752b4c6064736f6c63430008010033",
  "immutableReferences": {},
  "source": "// SPDX-License-Identifier: GPL-3.0\r\npragma solidity >=0.7.0 <0.9.0;\r\n\r\ncontract FundraiserStore {\r\n    Fundraiser[] public fundraisers;\r\n    \r\n    function createFundraiser(uint _goalAmount, uint _minDonation, uint256 _expiryDate, string memory _hostName, string memory _title, string memory _description, address _recipientAddress) public {\r\n        address hostAddress = msg.sender;\r\n        Fundraiser _fundraiser = new Fundraiser(_goalAmount, _minDonation, _expiryDate, _hostName, _title, _description, _recipientAddress, hostAddress);\r\n        fundraisers.push(_fundraiser);\r\n    }\r\n    \r\n    function getAll() view public returns(Fundraiser[] memory) {\r\n        return fundraisers;\r\n    }\r\n    \r\n    function getFundraiserGoal(Fundraiser _fundraiserId) view public returns(uint) {\r\n        for(uint i=0; i<fundraisers.length; i++) {\r\n            if(_fundraiserId == fundraisers[i]) {\r\n                Fundraiser _fundraiser = Fundraiser(fundraisers[i]);\r\n                return _fundraiser.getGoal();\r\n            }\r\n        }\r\n        return 0;\r\n    } \r\n    \r\n}\r\n\r\n\r\ncontract Fundraiser {\r\n    uint fundraiserId = 1;\r\n    uint goalAmount;\r\n    uint minDonation;\r\n    uint donatorCount = 1;\r\n    uint256 expiryDate;\r\n    bool isCompleted;\r\n    string title;\r\n    string description;    \r\n    string hostName;\r\n    address hostAddress;\r\n    address recipientAddress;\r\n    mapping(address => uint) donators;\r\n    mapping(uint => address) donatorsAddress;\r\n    \r\n    // 10000, 100, 16191360000, 'shanHost',  'Test Fundraiser', 'This is a test fundraiser for my first test', 0xf33ae10487660103e12db21283374afa18a556dc\r\n    constructor(uint _goalAmount, uint _minDonation, uint256 _expiryDate, string memory _hostName, string memory _title, string memory _description, address _recipientAddress, address _hostAddress) {\r\n        fundraiserId++;\r\n        goalAmount = _goalAmount;\r\n        minDonation = _minDonation;\r\n        expiryDate = _expiryDate;\r\n        isCompleted = false;\r\n        title = _title;\r\n        description = _description;\r\n        hostName = _hostName;\r\n        hostAddress = _hostAddress;\r\n        recipientAddress = _recipientAddress;\r\n    }\r\n    \r\n    function getDetails() view public returns (uint _goalAmount, string memory _hostName, string memory _title, string memory _description, address _fundraiserAddress) {\r\n        return (goalAmount, hostName, title, description, address(this));\r\n    }\r\n    \r\n    function getAllDetails() view public returns (uint _goalAmount, uint _minDonation, uint _donatorCount, uint256 _expiryDate, bool _isCompleted, string memory _hostName, string memory _title, string memory _description, address _hostAddress, address _recipientAddress, address _fundraiserAddress, uint _fundraiserBalance) {\r\n        return (goalAmount, minDonation, donatorCount, expiryDate, isCompleted, hostName, title, description, hostAddress, recipientAddress, address(this), address(this).balance);\r\n    }\r\n    \r\n    function getGoal() view public returns (uint) {\r\n        return goalAmount;\r\n    }\r\n    \r\n    function getBalance() view public returns (uint) {\r\n        return address(this).balance;\r\n    }\r\n    \r\n    \r\n    function addDonation() public payable {\r\n        if(msg.value < minDonation) {\r\n            revert();\r\n        } else {\r\n            if(donators[msg.sender] == 0){\r\n                donators[msg.sender] += msg.value;\r\n                donatorsAddress[donatorCount++] = msg.sender;    \r\n            } else {\r\n                donators[msg.sender] += msg.value;\r\n            }\r\n        }\r\n    }\r\n    \r\n    \r\n    function refundAll() public payable {\r\n        for(uint i=1; i <= donatorCount; i++) {\r\n            address _to = donatorsAddress[i];\r\n            uint _amount = donators[_to];\r\n            payable(_to).transfer(_amount);\r\n        }\r\n    }\r\n    \r\n    function releaseFunds() public payable {\r\n        payable(recipientAddress).transfer(goalAmount);\r\n    }\r\n    \r\n    \r\n}",
  "sourcePath": "C:/Users/sphat/Desktop/BE Project/Code/fundraiser-dapp-eth/contracts/FundraiserContract.sol",
  "compiler": {
    "name": "solc",
    "version": "0.8.1+commit.df193b15.Emscripten.clang"
  },
  "schemaVersion": "3.3.4",
  "updatedAt": "2021-05-16T14:56:35.795Z",
  "devdoc": {
    "kind": "dev",
    "methods": {},
    "version": 1
  },
  "userdoc": {
    "kind": "user",
    "methods": {},
    "version": 1
  }
}