{
  "contractName": "Fundraiser",
  "abi": [
    {
      "inputs": [
        {
          "internalType": "uint256",
          "name": "_goalAmount",
          "type": "uint256"
        },
        {
          "internalType": "uint256",
          "name": "_minDonation",
          "type": "uint256"
        },
        {
          "internalType": "uint256",
          "name": "_expiryDate",
          "type": "uint256"
        },
        {
          "internalType": "string",
          "name": "_hostName",
          "type": "string"
        },
        {
          "internalType": "string",
          "name": "_title",
          "type": "string"
        },
        {
          "internalType": "string",
          "name": "_description",
          "type": "string"
        },
        {
          "internalType": "address",
          "name": "_recipientAddress",
          "type": "address"
        },
        {
          "internalType": "address",
          "name": "_hostAddress",
          "type": "address"
        }
      ],
      "stateMutability": "nonpayable",
      "type": "constructor"
    },
    {
      "inputs": [],
      "name": "getGoal",
      "outputs": [
        {
          "internalType": "uint256",
          "name": "",
          "type": "uint256"
        }
      ],
      "stateMutability": "view",
      "type": "function"
    },
    {
      "inputs": [],
      "name": "getBalance",
      "outputs": [
        {
          "internalType": "uint256",
          "name": "",
          "type": "uint256"
        }
      ],
      "stateMutability": "view",
      "type": "function"
    },
    {
      "inputs": [],
      "name": "addDonation",
      "outputs": [],
      "stateMutability": "payable",
      "type": "function"
    },
    {
      "inputs": [],
      "name": "refundAll",
      "outputs": [],
      "stateMutability": "payable",
      "type": "function"
    },
    {
      "inputs": [],
      "name": "releaseFunds",
      "outputs": [],
      "stateMutability": "payable",
      "type": "function"
    }
  ],
  "bytecode": "0x608060405260016000556001600b553480156200001b57600080fd5b5060405162000b0a38038062000b0a8339818101604052810190620000419190620002b5565b600080815480929190620000559062000502565b91905055508760018190555086600281905550856003819055506000600460006101000a81548160ff0219169083151502179055508360059080519060200190620000a292919062000165565b508260069080519060200190620000bb92919062000165565b508460079080519060200190620000d492919062000165565b5080600860006101000a81548173ffffffffffffffffffffffffffffffffffffffff021916908373ffffffffffffffffffffffffffffffffffffffff16021790555081600960006101000a81548173ffffffffffffffffffffffffffffffffffffffff021916908373ffffffffffffffffffffffffffffffffffffffff160217905550505050505050505062000622565b828054620001739062000496565b90600052602060002090601f016020900481019282620001975760008555620001e3565b82601f10620001b257805160ff1916838001178555620001e3565b82800160010185558215620001e3579182015b82811115620001e2578251825591602001919060010190620001c5565b5b509050620001f29190620001f6565b5090565b5b8082111562000211576000816000905550600101620001f7565b5090565b60006200022c6200022684620003ec565b620003c3565b9050828152602081018484840111156200024557600080fd5b6200025284828562000460565b509392505050565b6000815190506200026b81620005ee565b92915050565b600082601f8301126200028357600080fd5b81516200029584826020860162000215565b91505092915050565b600081519050620002af8162000608565b92915050565b600080600080600080600080610100898b031215620002d357600080fd5b6000620002e38b828c016200029e565b9850506020620002f68b828c016200029e565b9750506040620003098b828c016200029e565b965050606089015167ffffffffffffffff8111156200032757600080fd5b620003358b828c0162000271565b955050608089015167ffffffffffffffff8111156200035357600080fd5b620003618b828c0162000271565b94505060a089015167ffffffffffffffff8111156200037f57600080fd5b6200038d8b828c0162000271565b93505060c0620003a08b828c016200025a565b92505060e0620003b38b828c016200025a565b9150509295985092959890939650565b6000620003cf620003e2565b9050620003dd8282620004cc565b919050565b6000604051905090565b600067ffffffffffffffff8211156200040a5762000409620005ae565b5b6200041582620005dd565b9050602081019050919050565b60006200042f8262000436565b9050919050565b600073ffffffffffffffffffffffffffffffffffffffff82169050919050565b6000819050919050565b60005b838110156200048057808201518184015260208101905062000463565b8381111562000490576000848401525b50505050565b60006002820490506001821680620004af57607f821691505b60208210811415620004c657620004c56200057f565b5b50919050565b620004d782620005dd565b810181811067ffffffffffffffff82111715620004f957620004f8620005ae565b5b80604052505050565b60006200050f8262000456565b91507fffffffffffffffffffffffffffffffffffffffffffffffffffffffffffffffff82141562000545576200054462000550565b5b600182019050919050565b7f4e487b7100000000000000000000000000000000000000000000000000000000600052601160045260246000fd5b7f4e487b7100000000000000000000000000000000000000000000000000000000600052602260045260246000fd5b7f4e487b7100000000000000000000000000000000000000000000000000000000600052604160045260246000fd5b6000601f19601f8301169050919050565b620005f98162000422565b81146200060557600080fd5b50565b620006138162000456565b81146200061f57600080fd5b50565b6104d880620006326000396000f3fe60806040526004361061004a5760003560e01c806312065fe01461004f57806338e771ab1461007a57806369d8957514610084578063b97a7d241461008e578063ced6d267146100b9575b600080fd5b34801561005b57600080fd5b506100646100c3565b60405161007191906103af565b60405180910390f35b6100826100cb565b005b61008c6101b6565b005b34801561009a57600080fd5b506100a3610223565b6040516100b091906103af565b60405180910390f35b6100c161022d565b005b600047905090565b6000600190505b600b5481116101b3576000600c600083815260200190815260200160002060009054906101000a900473ffffffffffffffffffffffffffffffffffffffff1690506000600a60008373ffffffffffffffffffffffffffffffffffffffff1673ffffffffffffffffffffffffffffffffffffffff1681526020019081526020016000205490508173ffffffffffffffffffffffffffffffffffffffff166108fc829081150290604051600060405180830381858888f1935050505015801561019d573d6000803e3d6000fd5b50505080806101ab9061042a565b9150506100d2565b50565b600960009054906101000a900473ffffffffffffffffffffffffffffffffffffffff1673ffffffffffffffffffffffffffffffffffffffff166108fc6001549081150290604051600060405180830381858888f19350505050158015610220573d6000803e3d6000fd5b50565b6000600154905090565b60025434101561023c57600080fd5b6000600a60003373ffffffffffffffffffffffffffffffffffffffff1673ffffffffffffffffffffffffffffffffffffffff1681526020019081526020016000205414156103475734600a60003373ffffffffffffffffffffffffffffffffffffffff1673ffffffffffffffffffffffffffffffffffffffff16815260200190815260200160002060008282546102d391906103ca565b9250508190555033600c6000600b60008154809291906102f29061042a565b91905055815260200190815260200160002060006101000a81548173ffffffffffffffffffffffffffffffffffffffff021916908373ffffffffffffffffffffffffffffffffffffffff16021790555061039e565b34600a60003373ffffffffffffffffffffffffffffffffffffffff1673ffffffffffffffffffffffffffffffffffffffff168152602001908152602001600020600082825461039691906103ca565b925050819055505b565b6103a981610420565b82525050565b60006020820190506103c460008301846103a0565b92915050565b60006103d582610420565b91506103e083610420565b9250827fffffffffffffffffffffffffffffffffffffffffffffffffffffffffffffffff0382111561041557610414610473565b5b828201905092915050565b6000819050919050565b600061043582610420565b91507fffffffffffffffffffffffffffffffffffffffffffffffffffffffffffffffff82141561046857610467610473565b5b600182019050919050565b7f4e487b7100000000000000000000000000000000000000000000000000000000600052601160045260246000fdfea2646970667358221220028ee6e14822b75e7e23410af603a1d9d799b80aa946d22ed33ad838f922d41464736f6c63430008010033",
  "immutableReferences": {},
  "source": "// SPDX-License-Identifier: GPL-3.0\r\npragma solidity >=0.7.0 <0.9.0;\r\n\r\ncontract FundraiserStore {\r\n    Fundraiser[] public fundraisers;\r\n    \r\n    function createFundraiser(uint _goalAmount, uint _minDonation, uint256 _expiryDate, string memory _hostName, string memory _title, string memory _description, address _recipientAddress) public {\r\n        address hostAddress = msg.sender;\r\n        Fundraiser _fundraiser = new Fundraiser(_goalAmount, _minDonation, _expiryDate, _hostName, _title, _description, _recipientAddress, hostAddress);\r\n        fundraisers.push(_fundraiser);\r\n    }\r\n    \r\n    function getAll() view public returns(Fundraiser[] memory) {\r\n        return fundraisers;\r\n    }\r\n    \r\n    function getFundraiserGoal(Fundraiser _fundraiserId) view public returns(uint) {\r\n        for(uint i=0; i<fundraisers.length; i++) {\r\n            if(_fundraiserId == fundraisers[i]) {\r\n                Fundraiser _fundraiser = Fundraiser(fundraisers[i]);\r\n                return _fundraiser.getGoal();\r\n            }\r\n        }\r\n        return 0;\r\n    } \r\n    \r\n}\r\n\r\n\r\ncontract Fundraiser {\r\n    uint fundraiserId = 1;\r\n    uint goalAmount;\r\n    uint minDonation;\r\n    uint256 expiryDate;\r\n    bool isCompleted;\r\n    string title;\r\n    string description;    \r\n    string hostName;\r\n    address hostAddress;\r\n    address recipientAddress;\r\n    mapping(address => uint) donators;\r\n    uint donatorCount = 1;\r\n    mapping(uint => address) donatorsAddress;\r\n    \r\n    // 10000, 100, 16191360000, 'shanHost',  'Test Fundraiser', 'This is a test fundraiser for my first test', '0xf33ae10487660103e12db21283374afa18a556dc'\r\n    constructor(uint _goalAmount, uint _minDonation, uint256 _expiryDate, string memory _hostName, string memory _title, string memory _description, address _recipientAddress, address _hostAddress) {\r\n        fundraiserId++;\r\n        goalAmount = _goalAmount;\r\n        minDonation = _minDonation;\r\n        expiryDate = _expiryDate;\r\n        isCompleted = false;\r\n        title = _title;\r\n        description = _description;\r\n        hostName = _hostName;\r\n        hostAddress = _hostAddress;\r\n        recipientAddress = _recipientAddress;\r\n    }\r\n    \r\n    \r\n    function getGoal() view public returns (uint) {\r\n        return goalAmount;\r\n    }\r\n    \r\n    function getBalance() view public returns (uint) {\r\n        return address(this).balance;\r\n    }\r\n    \r\n    \r\n    function addDonation() public payable {\r\n        if(msg.value < minDonation) {\r\n            revert();\r\n        } else {\r\n            if(donators[msg.sender] == 0){\r\n                donators[msg.sender] += msg.value;\r\n                donatorsAddress[donatorCount++] = msg.sender;    \r\n            } else {\r\n                donators[msg.sender] += msg.value;\r\n            }\r\n        }\r\n    }\r\n    \r\n    \r\n    function refundAll() public payable {\r\n        for(uint i=1; i <= donatorCount; i++) {\r\n            address _to = donatorsAddress[i];\r\n            uint _amount = donators[_to];\r\n            payable(_to).transfer(_amount);\r\n        }\r\n    }\r\n    \r\n    function releaseFunds() public payable {\r\n        payable(recipientAddress).transfer(goalAmount);\r\n    }\r\n    \r\n    \r\n}",
  "sourcePath": "C:/Users/sphat/Desktop/BE Project/Code/fundraiser-dapp-eth/contracts/FundraiserContract.sol",
  "compiler": {
    "name": "solc",
    "version": "0.8.1+commit.df193b15.Emscripten.clang"
  },
  "schemaVersion": "3.3.4",
  "updatedAt": "2021-04-21T20:30:47.502Z",
  "devdoc": {
    "kind": "dev",
    "methods": {},
    "version": 1
  },
  "userdoc": {
    "kind": "user",
    "methods": {},
    "version": 1
  }
}