{
  "contractName": "FundraiserStore",
  "abi": [
    {
      "inputs": [
        {
          "internalType": "uint256",
          "name": "",
          "type": "uint256"
        }
      ],
      "name": "fundraisers",
      "outputs": [
        {
          "internalType": "contract Fundraiser",
          "name": "",
          "type": "address"
        }
      ],
      "stateMutability": "view",
      "type": "function",
      "constant": true
    },
    {
      "inputs": [
        {
          "internalType": "uint256",
          "name": "_goalAmount",
          "type": "uint256"
        },
        {
          "internalType": "uint256",
          "name": "_minDonation",
          "type": "uint256"
        },
        {
          "internalType": "uint256",
          "name": "_expiryDate",
          "type": "uint256"
        },
        {
          "internalType": "string",
          "name": "_hostName",
          "type": "string"
        },
        {
          "internalType": "string",
          "name": "_title",
          "type": "string"
        },
        {
          "internalType": "string",
          "name": "_description",
          "type": "string"
        },
        {
          "internalType": "address",
          "name": "_recipientAddress",
          "type": "address"
        }
      ],
      "name": "createFundraiser",
      "outputs": [],
      "stateMutability": "nonpayable",
      "type": "function"
    },
    {
      "inputs": [],
      "name": "getAll",
      "outputs": [
        {
          "internalType": "contract Fundraiser[]",
          "name": "",
          "type": "address[]"
        }
      ],
      "stateMutability": "view",
      "type": "function",
      "constant": true
    },
    {
      "inputs": [
        {
          "internalType": "contract Fundraiser",
          "name": "_fundraiserId",
          "type": "address"
        }
      ],
      "name": "getFundraiserGoal",
      "outputs": [
        {
          "internalType": "uint256",
          "name": "",
          "type": "uint256"
        }
      ],
      "stateMutability": "view",
      "type": "function",
      "constant": true
    }
  ],
  "bytecode": "0x608060405234801561001057600080fd5b506116af806100206000396000f3fe60806040523480156200001157600080fd5b5060043610620000525760003560e01c806353ed51431462000057578063701970a21462000079578063827afbeb1462000099578063f38f72fb14620000cf575b600080fd5b6200006162000105565b604051620000709190620007ba565b60405180910390f35b620000976004803603810190620000919190620005b9565b62000195565b005b620000b76004803603810190620000b1919062000535565b62000253565b604051620000c69190620007fb565b60405180910390f35b620000ed6004803603810190620000e7919062000561565b62000419565b604051620000fc9190620007de565b60405180910390f35b606060008054806020026020016040519081016040528092919081815260200182805480156200018b57602002820191906000526020600020905b8160009054906101000a900473ffffffffffffffffffffffffffffffffffffffff1673ffffffffffffffffffffffffffffffffffffffff168152602001906001019080831162000140575b5050505050905090565b600033905060008888888888888888604051620001b29062000459565b620001c598979695949392919062000818565b604051809103906000f080158015620001e2573d6000803e3d6000fd5b5090506000819080600181540180825580915050600190039060005260206000200160009091909190916101000a81548173ffffffffffffffffffffffffffffffffffffffff021916908373ffffffffffffffffffffffffffffffffffffffff160217905550505050505050505050565b600080600090505b6000805490508110156200040e5760008181548110620002a4577f4e487b7100000000000000000000000000000000000000000000000000000000600052603260045260246000fd5b9060005260206000200160009054906101000a900473ffffffffffffffffffffffffffffffffffffffff1673ffffffffffffffffffffffffffffffffffffffff168373ffffffffffffffffffffffffffffffffffffffff161415620003f85760008082815481106200033f577f4e487b7100000000000000000000000000000000000000000000000000000000600052603260045260246000fd5b9060005260206000200160009054906101000a900473ffffffffffffffffffffffffffffffffffffffff1690508073ffffffffffffffffffffffffffffffffffffffff1663b97a7d246040518163ffffffff1660e01b815260040160206040518083038186803b158015620003b357600080fd5b505afa158015620003c8573d6000803e3d6000fd5b505050506040513d601f19601f82011682018060405250810190620003ee91906200058d565b9250505062000414565b8080620004059062000a64565b9150506200025b565b50600090505b919050565b600081815481106200042a57600080fd5b906000526020600020016000915054906101000a900473ffffffffffffffffffffffffffffffffffffffff1681565b610b0a8062000b7083390190565b60006200047e6200047884620008e4565b620008bb565b9050828152602081018484840111156200049757600080fd5b620004a4848285620009e9565b509392505050565b600081359050620004bd8162000b21565b92915050565b600081359050620004d48162000b3b565b92915050565b600082601f830112620004ec57600080fd5b8135620004fe84826020860162000467565b91505092915050565b600081359050620005188162000b55565b92915050565b6000815190506200052f8162000b55565b92915050565b6000602082840312156200054857600080fd5b60006200055884828501620004c3565b91505092915050565b6000602082840312156200057457600080fd5b6000620005848482850162000507565b91505092915050565b600060208284031215620005a057600080fd5b6000620005b0848285016200051e565b91505092915050565b600080600080600080600060e0888a031215620005d557600080fd5b6000620005e58a828b0162000507565b9750506020620005f88a828b0162000507565b96505060406200060b8a828b0162000507565b955050606088013567ffffffffffffffff8111156200062957600080fd5b620006378a828b01620004da565b945050608088013567ffffffffffffffff8111156200065557600080fd5b620006638a828b01620004da565b93505060a088013567ffffffffffffffff8111156200068157600080fd5b6200068f8a828b01620004da565b92505060c0620006a28a828b01620004ac565b91505092959891949750929550565b6000620006bf838362000746565b60208301905092915050565b620006d6816200096f565b82525050565b6000620006e9826200092a565b620006f581856200094d565b935062000702836200091a565b8060005b83811015620007395781516200071d8882620006b1565b97506200072a8362000940565b92505060018101905062000706565b5085935050505092915050565b6200075181620009c1565b82525050565b6200076281620009c1565b82525050565b6000620007758262000935565b6200078181856200095e565b935062000793818560208601620009f8565b6200079e8162000b10565b840191505092915050565b620007b481620009b7565b82525050565b60006020820190508181036000830152620007d68184620006dc565b905092915050565b6000602082019050620007f5600083018462000757565b92915050565b6000602082019050620008126000830184620007a9565b92915050565b60006101008201905062000830600083018b620007a9565b6200083f602083018a620007a9565b6200084e6040830189620007a9565b818103606083015262000862818862000768565b9050818103608083015262000878818762000768565b905081810360a08301526200088e818662000768565b90506200089f60c0830185620006cb565b620008ae60e0830184620006cb565b9998505050505050505050565b6000620008c7620008da565b9050620008d5828262000a2e565b919050565b6000604051905090565b600067ffffffffffffffff82111562000902576200090162000ae1565b5b6200090d8262000b10565b9050602081019050919050565b6000819050602082019050919050565b600081519050919050565b600081519050919050565b6000602082019050919050565b600082825260208201905092915050565b600082825260208201905092915050565b60006200097c8262000997565b9050919050565b600062000990826200096f565b9050919050565b600073ffffffffffffffffffffffffffffffffffffffff82169050919050565b6000819050919050565b6000620009ce82620009d5565b9050919050565b6000620009e28262000997565b9050919050565b82818337600083830152505050565b60005b8381101562000a18578082015181840152602081019050620009fb565b8381111562000a28576000848401525b50505050565b62000a398262000b10565b810181811067ffffffffffffffff8211171562000a5b5762000a5a62000ae1565b5b80604052505050565b600062000a7182620009b7565b91507fffffffffffffffffffffffffffffffffffffffffffffffffffffffffffffffff82141562000aa75762000aa662000ab2565b5b600182019050919050565b7f4e487b7100000000000000000000000000000000000000000000000000000000600052601160045260246000fd5b7f4e487b7100000000000000000000000000000000000000000000000000000000600052604160045260246000fd5b6000601f19601f8301169050919050565b62000b2c816200096f565b811462000b3857600080fd5b50565b62000b468162000983565b811462000b5257600080fd5b50565b62000b6081620009b7565b811462000b6c57600080fd5b5056fe608060405260016000556001600b553480156200001b57600080fd5b5060405162000b0a38038062000b0a8339818101604052810190620000419190620002b5565b600080815480929190620000559062000502565b91905055508760018190555086600281905550856003819055506000600460006101000a81548160ff0219169083151502179055508360059080519060200190620000a292919062000165565b508260069080519060200190620000bb92919062000165565b508460079080519060200190620000d492919062000165565b5080600860006101000a81548173ffffffffffffffffffffffffffffffffffffffff021916908373ffffffffffffffffffffffffffffffffffffffff16021790555081600960006101000a81548173ffffffffffffffffffffffffffffffffffffffff021916908373ffffffffffffffffffffffffffffffffffffffff160217905550505050505050505062000622565b828054620001739062000496565b90600052602060002090601f016020900481019282620001975760008555620001e3565b82601f10620001b257805160ff1916838001178555620001e3565b82800160010185558215620001e3579182015b82811115620001e2578251825591602001919060010190620001c5565b5b509050620001f29190620001f6565b5090565b5b8082111562000211576000816000905550600101620001f7565b5090565b60006200022c6200022684620003ec565b620003c3565b9050828152602081018484840111156200024557600080fd5b6200025284828562000460565b509392505050565b6000815190506200026b81620005ee565b92915050565b600082601f8301126200028357600080fd5b81516200029584826020860162000215565b91505092915050565b600081519050620002af8162000608565b92915050565b600080600080600080600080610100898b031215620002d357600080fd5b6000620002e38b828c016200029e565b9850506020620002f68b828c016200029e565b9750506040620003098b828c016200029e565b965050606089015167ffffffffffffffff8111156200032757600080fd5b620003358b828c0162000271565b955050608089015167ffffffffffffffff8111156200035357600080fd5b620003618b828c0162000271565b94505060a089015167ffffffffffffffff8111156200037f57600080fd5b6200038d8b828c0162000271565b93505060c0620003a08b828c016200025a565b92505060e0620003b38b828c016200025a565b9150509295985092959890939650565b6000620003cf620003e2565b9050620003dd8282620004cc565b919050565b6000604051905090565b600067ffffffffffffffff8211156200040a5762000409620005ae565b5b6200041582620005dd565b9050602081019050919050565b60006200042f8262000436565b9050919050565b600073ffffffffffffffffffffffffffffffffffffffff82169050919050565b6000819050919050565b60005b838110156200048057808201518184015260208101905062000463565b8381111562000490576000848401525b50505050565b60006002820490506001821680620004af57607f821691505b60208210811415620004c657620004c56200057f565b5b50919050565b620004d782620005dd565b810181811067ffffffffffffffff82111715620004f957620004f8620005ae565b5b80604052505050565b60006200050f8262000456565b91507fffffffffffffffffffffffffffffffffffffffffffffffffffffffffffffffff82141562000545576200054462000550565b5b600182019050919050565b7f4e487b7100000000000000000000000000000000000000000000000000000000600052601160045260246000fd5b7f4e487b7100000000000000000000000000000000000000000000000000000000600052602260045260246000fd5b7f4e487b7100000000000000000000000000000000000000000000000000000000600052604160045260246000fd5b6000601f19601f8301169050919050565b620005f98162000422565b81146200060557600080fd5b50565b620006138162000456565b81146200061f57600080fd5b50565b6104d880620006326000396000f3fe60806040526004361061004a5760003560e01c806312065fe01461004f57806338e771ab1461007a57806369d8957514610084578063b97a7d241461008e578063ced6d267146100b9575b600080fd5b34801561005b57600080fd5b506100646100c3565b60405161007191906103af565b60405180910390f35b6100826100cb565b005b61008c6101b6565b005b34801561009a57600080fd5b506100a3610223565b6040516100b091906103af565b60405180910390f35b6100c161022d565b005b600047905090565b6000600190505b600b5481116101b3576000600c600083815260200190815260200160002060009054906101000a900473ffffffffffffffffffffffffffffffffffffffff1690506000600a60008373ffffffffffffffffffffffffffffffffffffffff1673ffffffffffffffffffffffffffffffffffffffff1681526020019081526020016000205490508173ffffffffffffffffffffffffffffffffffffffff166108fc829081150290604051600060405180830381858888f1935050505015801561019d573d6000803e3d6000fd5b50505080806101ab9061042a565b9150506100d2565b50565b600960009054906101000a900473ffffffffffffffffffffffffffffffffffffffff1673ffffffffffffffffffffffffffffffffffffffff166108fc6001549081150290604051600060405180830381858888f19350505050158015610220573d6000803e3d6000fd5b50565b6000600154905090565b60025434101561023c57600080fd5b6000600a60003373ffffffffffffffffffffffffffffffffffffffff1673ffffffffffffffffffffffffffffffffffffffff1681526020019081526020016000205414156103475734600a60003373ffffffffffffffffffffffffffffffffffffffff1673ffffffffffffffffffffffffffffffffffffffff16815260200190815260200160002060008282546102d391906103ca565b9250508190555033600c6000600b60008154809291906102f29061042a565b91905055815260200190815260200160002060006101000a81548173ffffffffffffffffffffffffffffffffffffffff021916908373ffffffffffffffffffffffffffffffffffffffff16021790555061039e565b34600a60003373ffffffffffffffffffffffffffffffffffffffff1673ffffffffffffffffffffffffffffffffffffffff168152602001908152602001600020600082825461039691906103ca565b925050819055505b565b6103a981610420565b82525050565b60006020820190506103c460008301846103a0565b92915050565b60006103d582610420565b91506103e083610420565b9250827fffffffffffffffffffffffffffffffffffffffffffffffffffffffffffffffff0382111561041557610414610473565b5b828201905092915050565b6000819050919050565b600061043582610420565b91507fffffffffffffffffffffffffffffffffffffffffffffffffffffffffffffffff82141561046857610467610473565b5b600182019050919050565b7f4e487b7100000000000000000000000000000000000000000000000000000000600052601160045260246000fdfea2646970667358221220028ee6e14822b75e7e23410af603a1d9d799b80aa946d22ed33ad838f922d41464736f6c63430008010033a2646970667358221220da7c30b190b1fe04c79bb4cfd1c8fd30be955a2baba51a58c6a747d535ed918e64736f6c63430008010033",
  "immutableReferences": {},
  "source": "// SPDX-License-Identifier: GPL-3.0\r\npragma solidity >=0.7.0 <0.9.0;\r\n\r\ncontract FundraiserStore {\r\n    Fundraiser[] public fundraisers;\r\n    \r\n    function createFundraiser(uint _goalAmount, uint _minDonation, uint256 _expiryDate, string memory _hostName, string memory _title, string memory _description, address _recipientAddress) public {\r\n        address hostAddress = msg.sender;\r\n        Fundraiser _fundraiser = new Fundraiser(_goalAmount, _minDonation, _expiryDate, _hostName, _title, _description, _recipientAddress, hostAddress);\r\n        fundraisers.push(_fundraiser);\r\n    }\r\n    \r\n    function getAll() view public returns(Fundraiser[] memory) {\r\n        return fundraisers;\r\n    }\r\n    \r\n    function getFundraiserGoal(Fundraiser _fundraiserId) view public returns(uint) {\r\n        for(uint i=0; i<fundraisers.length; i++) {\r\n            if(_fundraiserId == fundraisers[i]) {\r\n                Fundraiser _fundraiser = Fundraiser(fundraisers[i]);\r\n                return _fundraiser.getGoal();\r\n            }\r\n        }\r\n        return 0;\r\n    } \r\n    \r\n}\r\n\r\n\r\ncontract Fundraiser {\r\n    uint fundraiserId = 1;\r\n    uint goalAmount;\r\n    uint minDonation;\r\n    uint256 expiryDate;\r\n    bool isCompleted;\r\n    string title;\r\n    string description;    \r\n    string hostName;\r\n    address hostAddress;\r\n    address recipientAddress;\r\n    mapping(address => uint) donators;\r\n    uint donatorCount = 1;\r\n    mapping(uint => address) donatorsAddress;\r\n    \r\n    // 10000, 100, 16191360000, 'shanHost',  'Test Fundraiser', 'This is a test fundraiser for my first test', '0xf33ae10487660103e12db21283374afa18a556dc'\r\n    constructor(uint _goalAmount, uint _minDonation, uint256 _expiryDate, string memory _hostName, string memory _title, string memory _description, address _recipientAddress, address _hostAddress) {\r\n        fundraiserId++;\r\n        goalAmount = _goalAmount;\r\n        minDonation = _minDonation;\r\n        expiryDate = _expiryDate;\r\n        isCompleted = false;\r\n        title = _title;\r\n        description = _description;\r\n        hostName = _hostName;\r\n        hostAddress = _hostAddress;\r\n        recipientAddress = _recipientAddress;\r\n    }\r\n    \r\n    \r\n    function getGoal() view public returns (uint) {\r\n        return goalAmount;\r\n    }\r\n    \r\n    function getBalance() view public returns (uint) {\r\n        return address(this).balance;\r\n    }\r\n    \r\n    \r\n    function addDonation() public payable {\r\n        if(msg.value < minDonation) {\r\n            revert();\r\n        } else {\r\n            if(donators[msg.sender] == 0){\r\n                donators[msg.sender] += msg.value;\r\n                donatorsAddress[donatorCount++] = msg.sender;    \r\n            } else {\r\n                donators[msg.sender] += msg.value;\r\n            }\r\n        }\r\n    }\r\n    \r\n    \r\n    function refundAll() public payable {\r\n        for(uint i=1; i <= donatorCount; i++) {\r\n            address _to = donatorsAddress[i];\r\n            uint _amount = donators[_to];\r\n            payable(_to).transfer(_amount);\r\n        }\r\n    }\r\n    \r\n    function releaseFunds() public payable {\r\n        payable(recipientAddress).transfer(goalAmount);\r\n    }\r\n    \r\n    \r\n}",
  "sourcePath": "C:/Users/sphat/Desktop/BE Project/Code/fundraiser-dapp-eth/contracts/FundraiserContract.sol",
  "compiler": {
    "name": "solc",
    "version": "0.8.1+commit.df193b15.Emscripten.clang"
  },
  "schemaVersion": "3.3.4",
  "updatedAt": "2021-04-26T17:09:36.432Z",
  "networkType": "ethereum",
  "devdoc": {
    "kind": "dev",
    "methods": {},
    "version": 1
  },
  "userdoc": {
    "kind": "user",
    "methods": {},
    "version": 1
  }
}